:02000000512A83
:0E00060010308312CD00CD0B0628000008003C
:1000140008308312CC002330CD00CD0B0F28CC0B3D
:040024000F28080099
:0400280000000800CC
:10002C008312B61B1B2886131C288617361B202808
:10003C00061321280617B61A252886122628861696
:10004C00361A2A2806122B28061623182F280614CF
:10005C0030280610861414208610B61937288613FB
:10006C003828861736193C2806133D280617B6186B
:10007C00412886124228861636184628061247282A
:10008C00061623184B2806144C2806108614142028
:0E009C008610231C53280A2054280320080035
:1000AA0083120313C801C9011030CC00410DC80DD9
:1000BA00C90D4408C8024508031C450FC9020318A4
:1000CA006D284408C80745080318450FC9070310D7
:0A00DA00C00DC10DCC0B5B2808001F
:1000E4008312B4010530340203187F28340833071F
:1000F400840020308000B40A742834083307840054
:100104008001B40334083307B5000A30C400C501C4
:100114003108C0003208C10055204808C000490811
:10012400C1003030C00735088400400880000A3020
:10013400C400C5013108C0003208C1005520400880
:10014400B1004108B20000304106031DAB28003065
:0E0154004006031DAE28B028B403842808001E
:10016200410DC80DC90D4408C8024508031C450FBE
:10017200C902C00DC10D0F30CC00410DC80DC90D13
:100182004408401CCA28C8024508031C450FC9027E
:10019200CF28C80745080318450FC907C00DC10D70
:1001A200CC0BBE284018DB284408C80745080318B2
:0801B200450FC9070000080019
:0C01BA00831227088A0026088200080033
:0E01C600831223103108B600162023140800FF
:1001D40083168610061006128612061386138312DF
:1001E4008610061086130613861206120A200A20A9
:1001F4000A20861606168614142086100A208614F1
:10020400142086100A208614142086100A20061250
:100214008614142086100A20861414208610861250
:1002240086178614142086100A2086130616861450
:100234001420861006128614142086100A208614B0
:100244001420861006168614142086100A2006121E
:10025400861414208610861706178616061686142A
:0A026400142086100A20231408005D
:10026E008312AD01AE012808AF002908B00080301E
:10027E002906C00080304002031D472900302802A5
:10028E00031855290130AD000030AE002808003C9F
:10029E00AF002908031C013EB001B0022F08B100C7
:1002AE003008B2002A08B30072200630AB000030CE
:1002BE00AC002C08003C031D66292B08003C0318DB
:1002CE0081292B082A07C20001302B02C000003002
:1002DE00031C013E2C02C10040082A0784000008BE
:1002EE00C00042088400400880000130AB02031CAD
:1002FE00AC0360292A088400203080002D082E04CB
:10030E0003199F29AB01AC012B082A0784000008B2
:10031E00203A031D9629AB0A0319AC0A8B2901302A
:10032E00AB02031CAC032B082A0784002D3080007F
:02033E000800B5
:10034000B12980308312A800C229C030A800C22978
:100350009430A800C229D430A800C2298030A80057
:10036000C2292808013A0319A1292808023A0319C9
:10037000A5292808033A0319A8292808043A0319CB
:10038000AB29AE292903C0002808C0074008A800EF
:100390004008B60016202310AB012B082A07840062
:1003A00000080319DB292B082A0784000008B10084
:0A03B000E320AB0ACD292314080056
:1003BA00DD208A110A128000840AA60A0319A70AF4
:0803CA00C003031DDD2908003A
:1003D20083124408003A031DF7294508003A031D19
:1003E200F729FF30C0007F30C100502A8312031367
:1003F200CD01C901C8014108400403190034410874
:100402004506CA00CA1BCD09CB01C51F0D2AC40966
:10041200C509C40A0319C50AC11F142AC009C109A2
:10042200C00A0319C10A41084504CA00CA1B292A85
:10043200B1204B183C2ACD1F0034C009C109C00AA3
:100442000319C10AC809C909C80A0319C90A00342B
:10045200C51F382AC11B342A4108C9004008C800F8
:10046200C101C0011C2AC101C001C00A0034C10976
:10047200C009CB0A192AC80A0319C90A4408480242
:10048200031D1C2A45084902031D1C2AC901C80173
:10049200C00A0319C10AC11F1C2A0000FF34080048
:1004A200643083128C008D0136308E0030308F0024
:1004B200303090002F309100313092003030930074
:1004C200303094003D30950020309600970158302E
:1004D2009800023099000C08C4000D08C5001808E5
:1004E200C0001908C100E9214008A4004108A50084
:1004F2004008A8004108A9001A30AA003721EA20C2
:100502000130B60016200C30B60016200130A800CB
:100512000130A9000E30AA00A0210130A800093044
:0A052200A9001A30AA00A021952AB2
:02400E00FA3F77
:00000001FF
